:1007AA0041542B43495053544152543D22544350CF
:1007BA00222C2279616E6773656C662E636E222C19
:1007CA003534390D0A0041542B4349504D4F4445A5
:1007DA003D310D0A0041542B43495053454E440DB7
:1007EA000A00474554202F636F756E7465722F6136
:1007FA006464446174613F634E616D653D00266EB9
:10080A00756D3D0020485454502F312E310D0A0089
:10081A00486F73743A2079616E6773656C662E63EC
:0D082A006E0D0A0D0A002B2B2B002564001B
:1009D4000A0E446576696365303031000208000010
:10036A00120B7FC2A4120A318E0A8F0B7FE87E031A
:10037A00120BDA120B4D7F327E00120BDA7BFF7AF8
:10038A000779D0120B537F327E00120BDA7BFF7A89
:10039A000779DF120B537F327E00120BDA7BFF7A6A
:1003AA000779EC120B537B007A00790E120B537B00
:1003BA00FF7A087908120B53AF0BAE0A120BC47BF3
:1003CA00007A00791A120B537BFF7A08790E120B06
:1003DA00537F327E00120BDA7BFF7A08791A120BEE
:1003EA00537F327E00120BDA7BFF7A087930120BC8
:1003FA0053120A318E0A8F0B1206718F4BAF0BAE56
:10040A000A12071AD3E50D94F4E50C94015003027D
:10041A00049F120B4D7F327E00120BDA7BFF7A07A4
:10042A0079D0120B537F327E00120BDA7BFF7A07E8
:10043A0079DF120B537F327E00120BDA7BFF7A07C9
:10044A0079EC120B537B007A00790E120B537BFF67
:10045A007A087908120B53AF0BAE0A120BC47B0051
:10046A007A00791A120B537BFF7A08790E120B5312
:10047A007F327E00120BDA7BFF7A08791A120B534D
:10048A007F327E00120BDA7BFF7A087930120B5327
:10049A00E4F50CF50D050DE50D7002050CE54BB400
:1004AA000418120A318E0A8F0B050BE50B70020530
:1004BA000AFFAE0A120AA9E4F54B120A318E0A8F14
:1004CA000B12071AE54BB40507D2A412093880F4B7
:1004DA00120A318E0A8F0B12071AE54BB401181251
:1004EA000A318E0A8F0B050BE50B7002050AFFAE67
:1004FA000A120AA9E4F54B120A318E0A8F0B120767
:10050A001AE54BB40219120A318E0A8F0BE50B1544
:10051A000B7002150AAF0BAE0A120AA9E4F54B12C8
:10052A000A318E0A8F0B12071AE54BB4030FE4F552
:10053A000AF50BAF0BAE0A120AA9E4F54B120A31FF
:10054A008E0A8F0B12071A120A31D3EF940FEE9408
:10055A00274024D2A4751800751901E519451860B9
:10056A0008120B9612096C80F2C2A4E4F50AF50B84
:10057A00AF0BAE0A120AA9120A318E0A8F0B1207A2
:04058A001A0203FB53
:03000B00020A05E1
:040A0500C0E0C0D0BD
:100A0900758A18758CFC0509E50970020508C394F7
:100A190088E5089413400C750800750900751800DD
:030A29007519003C
:050A2C00D0D0D0E03243
:100B7F0075985053890F438920438780758DF3856E
:070B8F008D8BC2ABD28E2258
:080003008F993099FDC299228A
:060B4D007BFF7A0779AA84
:100B530012058EFF600C120003740129F9E43AFABE
:030B630080EE22FF
:100BC4007525FF7526087527348E288F297B007AB2
:060BD40000791A02006A1C
:100BDA00EF4E600F7D027CEFDCFEDDFCEF1F70F054
:030BEA001E80ED7D
:010BED0022E5
:1009E4000A3AC0F9A4B0999282F8809004360102C0
:0209F4000408F5
:04071A008E248F2575
:10071E007C037DE81205A7853990743A2FF8E6F52B
:10072E00807F017E00120BDAAE24AF257C037DE8BC
:10073E001205A78C248D25AE24AF257C007D641276
:10074E0005A7853890743A2FF8E6F5807F017E0074
:10075E00120BDAAE24AF257C007D641205A78C2423
:10076E008D25AE24AF257C007D0A1205A785379016
:10077E00743A2FF8E6F5807F017E00120BDAAE2474
:10078E00AF257C007D0A1205A7AF05853690743A19
:0C079E002FF8E6F5807F017E00020BDAE8
:100938008539907580867F017E00120BDA853890A4
:100948007580C07F017E00120BDA8537907580C0F4
:100958007F017E00120BDA8536907580F97F017E63
:0409680000020BDAA4
:10096C008539907580867F017E00120BDA85389070
:10097C007580C07F017E00120BDA8537907580C0C0
:10098C007F017E00120BDA8536907580A47F017E84
:04099C0000020BDA70
:1009A0008539907580BF7F017E00120BDA85389003
:1009B0007580BF7F017E00120BDA8537907580BF8E
:1009C0007F017E00120BDA8536907580BF7F017E35
:0409D00000020BDA3C
:100B96005389F0438901758A18758CFCC28DD28CF5
:070BA600D2A9D2AFC2B922AF
:100BAD0053890F438910758A18758CFCC28FD28EAC
:070BBD00D2ABD2AFC2BB2294
:0309F600014B00B2
:10067100120A318E228F23E4F549F54A20A11C7F0D
:1006810014FE120BDA20A109AF23AE2212071A8041
:10069100F47F147E00120BDA754B0120A21D7F142A
:1006A1007E00120BDA20A209AF23AE2212071A80B4
:1006B100F47F147E00120BDA754B0220A31D7F1408
:1006C1007E00120BDA20A309AF23AE2212071A8093
:1006D100F47F147E00120BDA754B0320A0387F14CF
:1006E1007E00120BDA20A01F1209A0054AE54A700C
:1006F100020549D3944CE549941D40E9754B05E445
:10070100F549F54AAF4B227F147E00120BDAE4F56E
:0807110049F54A754B04AF4B9A
:0107190022BD
:100AF200D3EF9400EE6480948040147D6E7C00ED10
:0F0B02001D70011CED4C70F7EF1F70E41E80E1B9
:010B110022C1
:100BEE00D2A6D2A50000000000C2A60000000000A0
:030BFE00C2A5226B
:0C0C0100C2A6D2A50000000000D2A6226E
:0B0A5B00120ACF120A66AF05120ACF84
:100A6600D2A60000000000D2A5000000000030A6BB
:0C0A760007C2A5120C01C322C2A5D322A6
:100ACF00E4FEEF30E704D2A68002C2A600000000C9
:100ADF0000D2A5EF25E0FF0000000000C2A50EBE6A
:020AEF0008E01D
:010AF10022E2
:100B1200E4FED2A50000000000EF25E0FF30A603AE
:0E0B2200430701C2A500000000000EBE08E45B
:010B300022A2
:100B3100AB07120BEE7FA0120ACF120A66AF0312A7
:0C0B41000A5B120C017F057E00020AF224
:020B6600AD07D9
:100B6800120BEE7FA0120A5B120BEE7FA1120ACFC6
:060B7800120A66120B12C6
:010B7E002254
:100A3100E4FF120B668F247F01120B66EF3395E002
:100A4100FEEF7807C333CE33CED8F9FFAD24ED33B3
:090A510095E0FCEF2DFFEE3CFEE8
:010A5A002279
:100AA900EF547FFDEF7807CEC313CE13D8F9F522A3
:100AB900ED3395E0FCE4FF120B31E522FD3395E0BF
:060AC900FC7F01020B316D
:0B09F90001460002440000024700001D
:1008C300E54614601114602E14604B2403706520F8
:1008D300A062754601220545E54570020544D3949F
:1008E30032E5449400404DE4F544F54530A003F56A
:1008F3004622754602220545E545700205447FF40C
:100903007E01120BDA30A00A754700754801E4F541
:100913004622754603220545E54570020544D394F6
:1009230088E5449413400DE4F544F54520A005F50E
:05093300477548052294
:03000000020837BC
:0C083700787FE4F6D8FD75814B02087E46
:10058E00BB010689828A83E0225002E722BBFE026B
:09059E00E32289828A83E493229E
:1005A700BC000BBE0029EF8DF084FFADF022E4CC38
:1005B700F875F008EF2FFFEE33FEEC33FCEE9DEC01
:1005C700984005FCEE9DFE0FD5F0E9E4CEFD22ED47
:1005D700F8F5F0EE8420D21CFEADF075F008EF2F91
:1005E700FFED33FD4007985006D5F0F222C398FD82
:0505F7000FD5F0EA221F
:10000E00E5312425F8E605312278223007027825DD
:10001E00E475F00112063B02058E2000EB7F2ED216
:10002E00008018EF540F2490D43440D4FF30040BCA
:10003E00EF24BFB41A0050032461FFE532600215AD
:10004E00320535E5357002053430070D7822E4753A
:10005E00F00112063BEF020629020A827403D20750
:10006E008003E4C207F5318B228A238924E4F5321A
:10007E00F534F535E53260077F2012004980F575BD
:10008E0033FFC201C200C202C203C205C206C208C9
:10009E00120017FF700D3007057F0012005AAF35A2
:1000AE00AE3422B4255FC2D5C204120017FF24D08D
:1000BE00B40A00501A75F00A783230D50508B6FF2A
:1000CE000106C6A426F620D5047002D20380D924D8
:1000DE00CFB41A00EF5004C2E5D20402025AD20184
:1000EE0080C6D20080C0D20280BCD2D580BAD205E2
:1000FE0080B47F201200492002077401B5320040FF
:10010E00F112000EFF120049020082D208D20680C0
:10011E009512000EFB12000EFA12000EF94A4B70E9
:10012E0006792B7A037BFF20022EE532602A7E00B1
:10013E008E827583001205FC60060EEE653370F03C
:10014E00C2D5EBC0E0EAC0E0E9C0E0EE1202A1D0F9
:10015E00E0F9D0E0FAD0E0FB12058EFF60AAEBC00A
:10016E00E0EAC0E0E9C0E0120049D0E02401F9D095
:10017E00E03400FAD0E0FBE5330460DCD533D980FF
:10018E00877BFF7A02799DD202809C79108002795A
:10019E0008C206C2088008D2D5790A8004790AC23C
:1001AE00D5E533047002F533E4FAFDFEFF12000EBE
:1001BE00FC7B0820011312000EFD7B1030000A128A
:1001CE00000EFE12000EFF7B20EC3382D592D5502E
:1001DE0013C3E43000069FFFE49EFEE42001039D5E
:1001EE00FDE49CFCE4CBF8C201EC700CCFCECDCC80
:1001FE00E824F8F870F38017C3EF33FFEE33FEED0B
:10020E0033FDEC33FCEB33FB994002FB0FD8E9EBEB
:10021E00300105F8D0E0C448B201C0E00AEC4D4E02
:10022E004F78207B0070C2EAB5330040BCC0E012AC
:10023E0002A3D0F0D0E0200104C4C0E0C4B201C0DB
:10024E00F0120032D0F0D5F0EB02008212064B0114
:10025E001F5301995800F04C00EC42019D4F01A52F
:0F026E004401A54901054301AB55018F46018F9E
:10027D0045018F47034B5000F42D00F82E011B2B29
:10028D0000FC2301192003342A00B4480000011397
:10029D003F3F3F00790AA2D5200314300509B9105C
:1002AD00020404B9080104A2D5200602500104205D
:1002BD0002689202B532005034C0E07F203003193D
:1002CD007F30A20272067205500F1202FAC202C2EC
:1002DD0006C205C2087F30800F300503E9C0E01269
:1002ED000049300503D0E0F9D0E0B532CC30051728
:1002FD007F30B9100C1200497F583004077F788089
:10030D0003B908031200493002057F2D0200497F11
:10031D00202008F87F2B2006F322920280CF286E32
:10032D00756C6C2900D20112000E3001F8C20178F3
:10033D003230D50108F60200B42D50434958120051
:10034D000E2403B405004001E49003469312003AD5
:0D035D00743A12003AD2037532040201997D
:1008430002036AE493A3F8E493A34003F68001F25E
:1008530008DFF48029E493A3F85407240CC8C333B6
:10086300C4540F4420C8834004F456800146F6DF85
:10087300E4800B01020408102040809009D4E47E38
:10088300019360BCA3FF543F30E509541FFEE4937A
:10089300A360010ECF54C025E060A840B8E493A341
:1008A300FAE493A3F8E493A3C8C582C8CAC583CA6C
:1008B300F0A3C8C582C8CAC583CADFE9DEE780BE24
:010A040000F1
:1005FC00BB010CE58229F582E5833AF583E02250B4
:10060C0006E92582F8E622BBFE06E92582F8E222FD
:0D061C00E58229F582E5833AF583E4932217
:10062900BB010689828A83F0225002F722BBFE01B0
:02063900F322AA
:10063B00FAE6FB0808E6F925F0F618E6CA3AF622C0
:10064B00D083D082F8E4937012740193700DA3A33E
:10065B0093F8740193F5828883E473740293686052
:06066B00EFA3A3A380DF52
:100A8200EFB40A07740D120A8D740A309811A899EE
:100A9200B8130CC2983098FDA899C298B811F630D4
:070AA20099FDC299F59922AC
:00000001FF
