:08036200021800000216000061
:10000E00C2A41200031203CBAF19AE181200A01235
:10001E0002868F231201BCE5206401451F700D0579
:10002E0019E51970020518E4F51FF520E5206405A1
:10003E00451F7007D2A41202CE80F1E523B4010B46
:10004E000519E51970020518E4F523E523B4020B32
:10005E00E519151970021518E4F523E523B4030705
:10006E00E4F518F519F523D3E519940FE51894273F
:10007E004093D2A4751A00751B01E51B451A600842
:10008E0012038B12030280F2C2A4E4F518F51902D2
:02009E0000134D
:03000B00020336B7
:04033600C0E0C0D093
:10033A00758A18758CFC0517E51770020516C394A3
:10034A0088E5169413400C751600751700751A0087
:03035A00751B0010
:05035D00D0D0D0E03219
:1003B700EF4E600F7D027CEFDCFEDDFCEF1F70F07F
:0303C7001E80EDA8
:0103CA002210
:10036A000A0CC0F9A4B0999282F88090040801029C
:02037A00040875
:0400A0008E218F22FC
:1000A4007C037DE8120231850B90740C2FF8E6F581
:1000B400807F017E001203B7AE21AF227C037DE86E
:1000C4001202318C218D22AE21AF227C007D64127C
:1000D4000231850A90740C2FF8E6F5807F017E00CA
:1000E4001203B7AE21AF227C007D641202318C2151
:1000F4008D22AE21AF227C007D0A12023185099047
:10010400740C2FF8E6F5807F017E001203B7AE2150
:10011400AF227C007D0A120231AF05850890740C71
:0C0124002FF8E6F5807F017E000203B793
:1002CE00850B907580867F017E001203B7850A909C
:1002DE007580C07F017E001203B78509907580C0BE
:1002EE007F017E001203B78508907580F97F017E2D
:0402FE00000203B740
:10030200850B907580867F017E001203B7850A9067
:100312007580C07F017E001203B78509907580C089
:100322007F017E001203B78508907580A47F017E4D
:04033200000203B70B
:0B037C00011E00021C0000021F000018
:1001BC00E51E14601114602E14604B24037065202E
:1001CC00A062751E0122051DE51D7002051CD3944D
:1001DC0032E51C9400404DE4F51CF51D30A003F5F0
:1001EC001E22751E0222051DE51D7002051C7FF4E2
:1001FC007E011203B730A00A751F00752001E4F5CB
:10020C001E22751E0322051DE51D7002051CD394CC
:10021C0088E51C9413400DE4F51CF51D20A005F594
:05022C001F75200522F2
:10038B005389F0438901758A18758CFCC28DD28C08
:07039B00D2A9D2AFC2B922C2
:030387000123004F
:1002860020A1147F147E001203B730A1FD7F147ED7
:10029600001203B775230120A2147F147E001203F7
:1002A600B730A2FD7F147E001203B775230220A388
:1002B600147F147E001203B730A3FD7F147E001254
:0802C60003B7752303AF2322E7
:07000300D2A500D2A60022E5
:0A03CB00D2A600D2A500C2A60022AF
:0A03D500C2A600D2A500D2A60022A5
:1003A200E4FFD2A50030A609EFC394FF50030F80EB
:0403B200F4C2A500EC
:0103B6002224
:03000000020130CA
:0C013000787FE4F6D8FD7581230201778A
:10023100BC000BBE0029EF8DF084FFADF022E4CCB1
:10024100F875F008EF2FFFEE33FEEC33FCEE9DEC7A
:10025100984005FCEE9DFE0FD5F0E9E4CEFD22EDC0
:10026100F8F5F0EE8420D21CFEADF075F008EF2F0A
:10027100FFED33FD4007985006D5F0F222C398FDFB
:050281000FD5F0EA2298
:10013C0002000EE493A3F8E493A34003F68001F2CB
:10014C0008DFF48029E493A3F85407240CC8C333C4
:10015C00C4540F4420C8834004F456800146F6DF93
:10016C00E4800B0102040810204080900362E47EBE
:10017C00019360BCA3FF543F30E509541FFEE49388
:10018C00A360010ECF54C025E060A840B8E493A34F
:10019C00FAE493A3F8E493A3C8C582C8CAC583CA7A
:1001AC00F0A3C8C582C8CAC583CADFE9DEE780BE32
:01038A000072
:00000001FF
