:10004D00D3EF9400EE6480948040147D6E7C00EDBF
:0F005D001D70011CED4C70F7EF1F70E41E80E169
:01006C002271
:1000DC00D2A6D2A50000000000C2A60000000000BD
:0300EC00C2A52288
:0C00EF00C2A6D2A50000000000D2A6228C
:0B00030012002A12000EAF0512002AA6
:10000E00D2A60000000000D2A5000000000030A61D
:0C001E0007C2A51200EFC322C2A5D32226
:10002A00E4FEEF30E704D2A68002C2A60000000078
:10003A0000D2A5EF25E0FF0000000000C2A50EBE19
:02004A0008E0CC
:01004C002291
:10006D00E4FED2A50000000000EF25E0FF30A6035E
:0E007D00430701C2A500000000000EBE08E40B
:01008B002252
:10008C00AB071200DC7FA012002A12000EAF031285
:0C009C0000031200EF7F1E7E0002004DEA
:0200C300AD0787
:1000C5001200DC7FA01200031200DC7FA112002ABF
:0600D50012000E12006D86
:0100DB002202
:1000A8007DFF7C007F3712008C7DFF7C007F021271
:0B00B800008CE4FF1200C38F0880FEE4
:030000000200FB00
:0C00FB00787FE4F6D8FD7581080200A8AB
:00000001FF
